:0420000018EF10F0D5
:08200800C150F00BC16E010E86
:102010000F015B6F000E5F6F5C6F5D6F5E6FC05096
:10202000C00B0709C06EC09EC280000129EF10F0EE
:10203000F86AD09E700ED36ED26A9B6A0F015B6BFA
:102040005C6B5D6B5E6B5F6B9A6A996A986A000164
:10205000DBD7000E016EC250830B0110C26EC2822C
:10206000C2B2FED7C4CF04F004507F0803E29292BC
:0C207000898202D092928992ECD7030082
:020000040030CA
:0E00000023C85E3C00D3A1000FC00FE00F40EC
:00000001FF
;PIC18F45K50
;CRC=119B  CREATED="01-dic.-20 10:08"
